S01D00004D6963726F636F6E74726F6C6C65725F4C61626F722E737265637A
S11300000C942A000C9434000C9434000C943400A6
S11300100C9434000C9434000C9434000C9434008C
S11300200C9434000C9434000C9434000C9434007C
S11300300C9434000C9434000C9434000C9434006C
S11300400C9434000C9434000C9434000C9434005C
S11300500C94340011241FBECFE5D8E0DEBFCDBF21
S11300600E9451000C946C000C94000008956333BA
S1130070710514F41BBA0895663671051CF480E109
S11300808BBB0895693971051CF480E38BBB08951B
S11300906C3C71051CF480E78BBB089580EF8BBB2F
S11300A00895CF93DF931F92CDB7DEB780EF8ABB5D
S11300B0D89ACE0101960E94360010E0612F70E0BC
S11300C0CE0101960E943700165F83EC99E00197F8
S10F00D0F1F700C00000F2CFF894FFCF5D
S9030000FC
