:100000000C942A000C9434000C9434000C943400AA
:100010000C9434000C9434000C9434000C94340090
:100020000C9434000C9434000C9434000C94340080
:100030000C9434000C9434000C9434000C94340070
:100040000C9434000C9434000C9434000C94340060
:100050000C94340011241FBECFE5D8E0DEBFCDBF25
:100060000E9457000C9472000C94000008958BB30A
:10007000806F8BBB6333710524F48BB38F708BBBA4
:1000800008956636710524F48BB38F718BBB089588
:100090006939710524F48BB38F738BBB08956C3C65
:1000A000710514F4DF9808958BB38BBB0895CF933B
:1000B000DF931F92CDB7DEB780EF8ABBCE010196EA
:1000C0000E943600DA9A10E0612F70E0CE010196AE
:1000D0000E9437001F5F83EC99E00197F1F700C0A1
:0800E0000000F2CFF894FFCFFD
:00000001FF
